:020000040800F2
:100000002804002045010008C50D0008ED0C00087B
:10001000510D00088D0800080F1A000800000000AC
:10002000000000000000000000000000F5110008C2
:1000300029090008000000004510000819130008F5
:100040005F0100085F0100085F0100085F01000810
:100050005F0100085F0100085F0100085F01000800
:100060005F0100085F0100085F0100085F010008F0
:100070005F0100085F0100085F0100085F010008E0
:100080005F0100085F010008490500085F010008E2
:100090005F0100085F0100085F0100085F010008C0
:1000A0005F0100085F0100085F0100085F010008B0
:1000B0005F0100085F0100085F0100085F010008A0
:1000C0005F0100085F0100085F0100085F01000890
:1000D0005F0100085F0100085F0100085F01000880
:1000E0005F0100085F0100085F0100085F01000870
:1000F0005F0100085F0100085F0100085F01000860
:100100005F0100085F0100085F0100085F0100084F
:10011000F11600085F0100085F0100085F01000898
:100120005F0100085F0100085F0100085F0100082F
:10013000DFF80CD000F0F6F900480047511A00082B
:10014000280400200648804706480047FEE7FEE7EF
:10015000FEE7FEE7FEE7FEE7FEE7FEE7FEE7FEE777
:100160001D130008310100082DE9FE4F804681EA89
:100170000300C00F0C46009021F0004123F0004521
:10018000B8EB0200A94105D24046214690461C46E4
:100190000B46024623F00040104347D0270DC7F31B
:1001A0000A00C3F30A510290401A019040286BDA0A
:1001B000C3F3130040F4801B0098924620B1002343
:1001C000D2EB030A63EB0B0B01985946C0F14002D6
:1001D000504600F019F906460D4650465946019A18
:1001E00000F031F910EB08006141002487EA115258
:1001F00084EAE7731A4340D0009A62B3019A012A55
:100200004FEA075215DC001B61EB02014FF0004280
:1002100002EA0752CDE90042001C41F58011324646
:100220002B4600F031F903B0BDE8F08F404621467F
:10023000F9E7001B61EB0201001C41F58013001877
:100240005B412018A2F5001747EB030140EAD57087
:10025000B6196D4111E06D084FEA360645EAC075E2
:100260004FEA0752001B61EB0201001C41F58011AF
:1002700049084FEA30000019514132462B4603B07D
:10028000BDE8F04F00F0F1B80098012240000023D3
:10029000D0EB020263EBE073009821464FEAE07472
:1002A000B8EB000061EB0401E9E783F000435BE792
:1002B00081F0004158E72DE9FE4F81EA030404F084
:1002C000004421F0004100944FF0000B23F0004364
:1002D00050EA01045ED052EA03045BD0C3F30A542F
:1002E000C1F30A552C44A4F2F3340194A0FB025448
:1002F000C1F3130141F48011C3F3130343F48013DA
:1003000001FB024400FB034E840A970A44EA81542D
:1003100047EA8357A4FB076802958D0A05FB07850A
:100320004FEA932C04FB0C542705029D4FEA065814
:1003300047EA1637B5EB08056EEB070C870E920EF1
:1003400047EA811742EA8312A7FB0201B6EB0B01D1
:1003500064EB00042B0D43EA0C335E1844EB1C5095
:10036000DA465146E7FB0201C5F313044FEA0B33AB
:1003700043EA14534FEA0432019C43EA0603A4F112
:100380000C040294009CCDE900B400F07DF803B0A9
:10039000BDE8F08F00200146F9E70EB5C10F80EAF5
:1003A000E0700844CA07002140F233438DE80E0094
:1003B0000A460B4600F068F803B000BD0EB540F2E7
:1003C000334102910021CDE900110A460B4600F0AD
:1003D0005BF803B000BDC1F30A5210B5C1F31301BD
:1003E00040F2FF3341F480119A4201DA002010BD3F
:1003F00040F233439A42A2F2334203DC524200F00D
:1004000012F810BD904010BD202A04DB203A00FAFB
:1004100002F1002070479140C2F1200320FA03F35B
:10042000194390407047202A04DB203A21FA02F059
:100430000021704721FA02F3D040C2F1200291401E
:10044000084319467047202A06DBCB17203A41FAA9
:1004500002F043EAE07306E041FA02F3D040C2F151
:100460002002914008431946704710B5141E73F1DD
:10047000000408DA401C41F1000192185B411A4364
:1004800001D120F0010010BD2DE9F04D92469B46B0
:1004900011B1B1FA81F202E0B0FA80F22032904656
:1004A000FFF7B2FF04460F4640EA0A0041EA0B019B
:1004B00053465A46084313D0114653EA010019D057
:1004C000C8F140025046FFF7AEFF05460E465046C3
:1004D00059464246FFF798FF084305D0012004E043
:1004E00020463946BDE8F08D0020054346EAE07617
:1004F0002C4337430A986305E40AA0EB0800002266
:10050000FD0A44EA47540A3002D500200146E9E7D3
:10051000010510196941DDE9084500196941BDE887
:10052000F04DA2E7064C074D06E0E06840F00103FD
:1005300094E8070098471034AC42F6D3FFF7FCFD6F
:10054000901A0008B01A000810B54FF40871084856
:1005500000F067F8012804D1054800F055F8054976
:1005600008804FF40871024800F006F810BD000042
:10057000002401400A00002000220A12D343036035
:10058000704721B1826842F00102826003E0826814
:1005900022F001028260704710B50446124884427E
:1005A00008D10121401500F07BFD0021601500F00D
:1005B00077FD17E00D48844208D10121001500F0B5
:1005C0006FFD0021201500F06BFD0BE00848844210
:1005D00008D10121C80300F063FD00214FF4004061
:1005E00000F05EFD10BD0000002401400028014025
:1005F000003C0140014600208A6802F004020AB172
:10060000012000E0002070470146C86C80B27047AE
:100610000246002013680B400BB1012000E00020CF
:10062000704770B502460020002300240B12556865
:10063000CEB205EA060415681D4015B10CB10120C3
:1006400000E0002070BD014600208A6802F0080228
:100650000AB1012000E000207047000030B50246DA
:100660000020002350680F4C20400D790C6844EAAC
:1006700005242043506090680B4C2040D1E902547F
:100680002C434D7944EA450420439060D06A20F41D
:1006900070000C7C641EE4B2234340EA0350D06235
:1006A00030BD0000FFFEF0FFFDF7F1FFF0B504469E
:1006B0000D4600200021092D11DDE068A5F10A0694
:1006C00006EB4607072606FA07F18843A5F10A0656
:1006D00006EB460603FA06F10843E0600CE02069E9
:1006E00005EB4507072606FA07F1884305EB4506A3
:1006F00003FA06F108432061072A0FDA606B561EE1
:1007000006EB86071F2606FA07F18843561E06EBFE
:10071000860605FA06F10843606322E00D2A0FDA27
:10072000206BD61F06EB86071F2606FA07F18843C3
:10073000D61F06EB860605FA06F10843206310E093
:10074000E06AA2F10D0606EB86071F2606FA07F1FE
:100750008843A2F10D0606EB860605FA06F108436A
:10076000E062F0BD816841F008018160704721B10D
:10077000826842F4A002826003E0826822F4A00250
:1007800082607047816841F0040181607047000019
:1007900010B5C72141F61F4000F0FEFB00F07CFBC6
:1007A000A5210B4800F04CFF00F096FBA52108485E
:1007B00000F046FF00F0B0FBA521054800F040FF27
:1007C00000F0CAFBA521024800F03CFF10BD00006C
:1007D000002C014000B587B001214FF4047000F0F7
:1007E0004FFC4FF4004000F02FFC0E20ADF8040049
:1007F00000208DF8070001A9214800F0CDF9012063
:10080000ADF8040000208DF8070001A91C4800F095
:10081000C3F91C48FFF7C0FE8420ADF80400002097
:100820008DF8070001A9184800F0B6F900200290E1
:100830008DF80C008DF80D004FF46020049000201E
:10084000059001208DF8180002A90E48FFF706FF59
:1008500001210C48FFF795FE0A48FFF783FF00BF10
:100860000848FFF7F0FE0028FAD10648FFF78AFF94
:1008700000BF0448FFF7BEFE0028FAD107B000BD54
:1008800000100140002401400008014000BFFEE7C5
:1008900000B585B00121102000F0F2FB01211020ED
:1008A00000F0EEFB4FF48060ADF8100018208DF8DA
:1008B000130003208DF8120004A9194800F06CF908
:1008C0004FF40060ADF8100004208DF8130004A967
:1008D000134800F061F90121C80400F0C1FB4FF496
:1008E000164000900020ADF80400ADF80600ADF809
:1008F0000800ADF80C000C20ADF80A006946094864
:1009000001F014F80121074800F06CFF00F06EFAC6
:10091000012240F22551034800F0E2FF05B000BD7E
:1009200000100140004C0040704700002DE9F04FDE
:1009300087B04FF0000A00200690E7E040F6B8309C
:10094000824500DD82467848824500DA82460B20E7
:1009500000F0B2F904460D2000F0AEF9201A8244EE
:100960000B2000F0A9F904460D2000F0A5F9201A8B
:1009700006900D2000F0A0F940F67461884223DD56
:10098000022000F099F9C8281EDA0A2001F050F878
:100990000D2000F091F940F67461884206DD0220D6
:1009A00000F08AF9C82801DA00F00CFC0D2000F0F4
:1009B00083F940F67461884206DD022000F07CF97C
:1009C000C82801DD00F0E6FB0B2000F075F940F6C9
:1009D0003C71884229DD072000F06EF940F2DC51BD
:1009E000884222DA0A2001F023F80B2000F064F993
:1009F00040F63C71884208DD072000F05DF940F2C6
:100A0000DC51884201DA00F08BF90B2000F054F938
:100A100040F63C71884208DD072000F04DF940F2B5
:100A2000DC51884201DD00F063F9022000F044F956
:100A3000C82801DD00F0AEFB072000F03DF940F2D0
:100A4000DC51884207DD0A2000F036F9B0F52F7F2F
:100A500001DA00F04DF9012000F084F9012000F0E6
:100A600099F95046FFF799FC044600222F4BFFF7F7
:100A700022FCCDE904010D2000F01EF90190FFF7E2
:100A80009DFC064600222A4BFFF715FC0446002277
:100A9000284BFFF70DFCCDE90201DDE90423FFF748
:100AA00063FB8046FFF797FC1FFA80FB59462248FC
:100AB00000F0C2FD5046FFF770FC064600221B4BBB
:100AC000FFF7F9FBCDE904010B2000F0F5F80190E8
:100AD000FFF774FC06460022154BFFF7ECFB80463F
:100AE0000022144BFFF7E4FBCDE90201DDE904230A
:100AF000FFF7DBFB0446FFF76EFC1FFA80FB59464D
:100B00000D4800F09BFD0F2000F092FF0B49088874
:100B100000EBD0714910A0EB410100293FF40EAF6A
:100B200007B0BDE8F08F000048F4FFFF0000D03FA1
:100B3000000004400070C740002C0140000000206D
:100B400008B50121082000F09BFAC020ADF8000094
:100B500010208DF8030003208DF80200694602483A
:100B600000F01AF808BD0000000C014008B5012192
:100B7000102000F085FAC020ADF8000010208DF89C
:100B8000030003208DF802006946024800F004F8D3
:100B900008BD0000001001402DE9F041024600258B
:100BA0000026002000230024002791F803C00CF049
:100BB0000F0591F803C00CF0100CBCF1000F03D02E
:100BC00091F802C04CEA050591F800C0BCF1000F95
:100BD00031D0146800202BE04FF0010C0CFA00F328
:100BE000B1F800C00CEA03069E4220D183004FF00A
:100BF0000F0C0CFA03F7BC4305FA03FC4CEA04049F
:100C000091F803C0BCF1280F06D14FF0010C0CFA8B
:100C100000FCC2F814C00AE091F803C0BCF1480F10
:100C200005D14FF0010C0CFA00FCC2F810C0401CBA
:100C30000828D1D31460B1F800C0BCF1FF0F34DD37
:100C4000546800202EE000F1080C4FF0010808FA6B
:100C50000CF3B1F800C00CEA03069E4221D18300D8
:100C60004FF00F0C0CFA03F7BC4305FA03FC4CEAF7
:100C7000040491F803C0BCF1280F05D100F1080C61
:100C800008FA0CF8C2F8148091F803C0BCF1480FC0
:100C900007D100F1080C4FF0010808FA0CF8C2F86F
:100CA0001080401C0828CED35460BDE8F08141611B
:100CB000704701617047000010B504460723012208
:100CC00021460948FFF7F2FC01210748FFF74FFDD5
:100CD00000BF02210448FFF79BFC0028F9D002481E
:100CE000FFF792FC10BD00000024014000BFFEE7AA
:100CF00010B5012000F036F8002000F04BF842F269
:100D00001071064800F098FC42F21071034800F0A0
:100D100095FC4FF4027000F08BFE10BD002C0140DA
:100D200010B5012000F01EF8002000F033F841F269
:100D30008831064800F080FC41F28831034800F019
:100D40007DFCBE2000F074FE10BD0000002C0140B0
:100D500000BFFEE710B5FFF71BFDFFF7F1FEFFF741
:100D600005FF10BD10B50446012C08D140210848EC
:100D7000FFF79FFF80210648FFF799FF07E08021DA
:100D80000348FFF796FF40210148FFF790FF10BD91
:100D9000000C014010B50446012C08D14021084840
:100DA000FFF787FF80210648FFF781FF07E08021DA
:100DB0000348FFF77EFF40210148FFF778FF10BD91
:100DC00000100140704708B54FF4A06000F05AF8D9
:100DD00035208DF8000001208DF801008DF802000B
:100DE0008DF80300684600F015F808BD08B54FF40B
:100DF000A06000F047F834208DF8000000208DF846
:100E0000010001208DF802008DF80300684600F013
:100E100001F808BD70B5002100230F22C47804B387
:100E2000154C246804F4E064C4F5E064210AC1F1BF
:100E30000403CA40447804FA03F18478144021433F
:100E400009010E4C0678A155047804F01F05012411
:100E5000AC4005786D11AD0005F1E025C5F8004105
:100E600009E0047804F01F050124AC40044D067825
:100E7000761145F8264070BD0CED00E000E400E07E
:100E800080E100E002490143024A1160704700001E
:100E90000000FA050CED00E008B50121084600F05D
:100EA000EFF84FF48070ADF8000018208DF80300C3
:100EB00003208DF8020069460648FFF76DFE012108
:100EC000042000F0DDF84FF480710248FFF7F1FED6
:100ED00008BD00000008014008B50121084600F0E7
:100EE000CFF84FF40070ADF8000018208DF8030023
:100EF00003208DF8020069460648FFF74DFE0121E8
:100F0000042000F0BDF84FF400710248FFF7D1FE55
:100F100008BD00000008014008B50121084600F0A6
:100F2000AFF84FF48060ADF8000018208DF8030092
:100F300003208DF8020069460648FFF72DFE0121C7
:100F4000042000F09DF84FF480610248FFF7B1FEE5
:100F500008BD00000008014008B50121084600F066
:100F60008FF84FF40060ADF8000018208DF80300F2
:100F700003208DF8020069460648FFF70DFE0121A7
:100F8000042000F07DF84FF400610248FFF791FE65
:100F900008BD00000008014030B587B005460C468A
:100FA0000121C80200F06CF80121042000F068F86B
:100FB000ADF81450ADF810400020ADF81600ADF8B3
:100FC000120004A91E4800F041FB7020ADF800009B
:100FD0000120ADF802000220ADF808000020ADF8B5
:100FE00006006946164800F0E9FA0821144800F0A6
:100FF00039FA6946124800F091FA0821104800F0C9
:1010000031FA69460E4800F037FA08210C4800F022
:1010100029FA69460A4800F0D9F90821084800F081
:1010200021FA0121064800F0A9F90121044800F045
:10103000BDF90121024800F0ADF907B030BD000054
:10104000002C01407047000001460020034A506810
:1010500020F44040084350607047000000100240F8
:1010600029B1064AD2690243044BDA6104E0034A1B
:10107000D2698243014BDA617047000000100240E0
:1010800029B1064A92690243044B9A6104E0034A7B
:1010900092698243014B9A61704700000010024040
:1010A00029B1064AD2680243044BDA6004E0034ADD
:1010B000D2688243014BDA607047000000100240A2
:1010C00030B500210022002400232D4D6D6805F06D
:1010D0000C0121B1042905D0082923D105E0294DAF
:1010E000056022E0274D05601FE0254D6D6805F481
:1010F0007012234D6D6805F48034022505EB924291
:101100001CB9214D554305600BE01D4D6D6805F47C
:1011100000351DB11C4D5543056002E0194D554386
:10112000056002E0174D056000BF00BF144D6D68FB
:1011300005F0F0010909154D6B5C0568DD4045605F
:101140000F4D6D6805F4E061090A104D6B5C456850
:10115000DD4085600A4D6D6805F46051C90A0B4D8C
:101160006B5C4568DD40C560054D6D6805F4404128
:10117000890B074D6B5CC568B5FBF3F5056130BDA8
:101180000010024000127A0000093D000E0000200D
:101190001E00002010B50020FFF7E4FD0120FFF73E
:1011A000F9FD42F21071064800F046FA42F2107161
:1011B000034800F043FA40F23A2000F039FC10BD39
:1011C000002C014010B50020FFF7CCFD0120FFF7F7
:1011D000E1FD41F28831064800F02EFA41F28831F3
:1011E000034800F02BFABE2000F022FC10BD0000E6
:1011F000002C01407047000070B504464FF4B470F5
:1012000000EB44052946024800F01AFA70BD0000C0
:10121000002C014070B504464FF4B47000EB440557
:101220002946024800F00EFA70BD0000002C014073
:1012300010B500F001F810BD0CB500200190009031
:101240003348006840F480303149086000BF3048BE
:10125000006800F4003000900198401C0190009854
:1012600018B90198B0F5A06FF1D12948006800F4D1
:10127000003010B10120009001E0002000900098A3
:10128000012843D12348006840F01000214908603C
:101290000846006820F0030008600846006840F037
:1012A000020008601A4840681949486008464068CA
:1012B00048600846406840F48060486008464068DE
:1012C00020F47C1048600846406840F4E81048600C
:1012D0000846006840F08070086000BF0C48006855
:1012E00000F000700028F9D00948406820F00300A1
:1012F000074948600846406840F00200486000BF67
:101300000348406800F00C000828F9D10CBD00002B
:1013100000100240002002407047000010B5134842
:10132000006840F001001149086008464068104913
:1013300008400E494860084600680E4908400B49BD
:1013400008600846006820F480200860084640686D
:1013500020F4FE0048604FF41F008860FFF768FF2C
:101360004FF000600449086010BD0000001002400A
:101370000000FFF8FFFFF6FE08ED00E021B1028853
:1013800042F08002028004E002884FF67F731A4028
:101390000280704721B1028842F00102028004E01D
:1013A00002884FF6FE731A400280704731B1B0F8E0
:1013B000442042F40042A0F8442005E0B0F8442064
:1013C000C2F30E02A0F844207047000070B500245C
:1013D00000220023058C4FF6FE7635400584028CF2
:1013E0008388048B4FF68F752C40B51E2C400D88DA
:1013F0002C43751E2A400D892A434D882A43144DDB
:10140000A8420BD0134DA84208D0134DA84205D0D6
:10141000124DA84202D0124DA84213D14FF6F775D3
:101420002A404D892A434FF6FB752A408D882A436E
:101430004FF6FF652B404FF6FF552B408D892B4310
:10144000CD892B4383800483CD888586028470BD3B
:10145000002C0140003401400040014000440140A4
:10146000004801400A460021018B4FF6F7731940EE
:10147000114301837047000070B50024002200234F
:10148000058C4FF6EF7635400584028C8388048BFB
:1014900048F6FF752C404FF6FF452C400D884FF65F
:1014A000FF7606EA05252C434FF6DF752A400D89A5
:1014B00006EA05152A434D8806EA05152A43154D07
:1014C000A84202D0144DA8421DD14FF67F752A4084
:1014D0004D894FF6FF7606EA05152A434FF6BF758C
:1014E0002A408D8806EA05152A434FF6FF352B4022
:1014F0004FF2FF752B408D8906EA85052B43CD8978
:1015000006EA85052B4383800483CD880587028402
:1015100070BD0000002C01400034014070B5002473
:1015200000220023058C4FF6FF6635400584028CAF
:101530008388848B4FF68F752C404FF6FC752C40BA
:101540000D882C434FF6FF552A400D894FF6FF7644
:1015500006EA05252A434D8806EA05252A43154D46
:10156000A84202D0144DA8421DD14FF2FF752A4067
:101570004D894FF6FF7606EA05252A434FF6FF35DB
:101580002A408D8806EA05252A434EF6FF752B4032
:101590004DF6FF752B408D8906EA05152B43CD8945
:1015A00006EA05152B4383808483CD8885870284D2
:1015B00070BD0000002C01400034014070B50022D5
:1015C00000230024058C4EF6FF7635400584038CFD
:1015D0008488828B48F6FF752A404FF6FF452A40E3
:1015E0000D884FF6FF7606EA05252A434DF6FF756E
:1015F0002B400D8906EA05352B434D8806EA053553
:101600002B430B4DA84202D00A4DA84208D14BF6FD
:10161000FF752C408D894FF6FF7606EA85152C4321
:1016200084808283CD88A0F84050038470BD000080
:10163000002C0140003401408186704701877047CB
:1016400081877047A0F84010704700000022028890
:101650001D4B98420ED01D4B98420BD0B0F1804FDD
:1016600008D01B4B984205D01A4B984202D01A4B17
:10167000984204D14FF68F731A404B881A43174B88
:10168000984207D0164B984204D04FF6FF431A40B9
:10169000CB881A4302808B8883850B8803850A4B8D
:1016A00098420BD0094B984208D00E4B984205D077
:1016B0000D4B984202D00D4B984201D10B7A038614
:1016C0000123838270470000002C01400034014058
:1016D0000004004000080040000C004000100040E2
:1016E0000014004000400140004401400048014017
:1016F00070B540F22551364800F0C8F8002866D091
:10170000334800F07FF9C5B2314800F07BF9C4B22C
:10171000352C08D12F48008864302E49088009886C
:10172000C8B2FFF769FD362C08D12A480088643812
:10173000284908800988C8B2FFF75EFD332C13D111
:101740000020FFF70FFB0120FFF724FB40F6B83124
:101750002148FFF771FF40F6B8311F48FFF76EFFD1
:101760004FF4C87000F064F9342C13D10120FFF756
:10177000F9FA0020FFF70EFB40F6B8311648FFF7E4
:101780005BFF40F6B8311448FFF758FF4FF4C870BC
:1017900000F04EF9322C04D110480088401C0F494B
:1017A0000880372C08D10E48008864300C49088026
:1017B0000988C8B2FFF72EFD382C08D108480088E8
:1017C0006438074908800988C8B2FFF723FD70BD57
:1017D000004C004008000020002C014000000020C8
:1017E0000C00002021B1828942F40052828104E081
:1017F00082894DF6FF731A408281704700B585B02B
:1018000001213020FFF73CFC01210805FFF728FCEF
:101810004FF48050ADF8100018208DF8130003200D
:101820008DF8120004A91648FFF7B6F90420ADF8A8
:1018300010008DF8130004A91248FFF7ADF94FF41A
:10184000E13000900020ADF80400ADF80600ADF8DE
:101850000800ADF80C000C20ADF80A0069460A48F3
:1018600000F064F8FFF7AFFA012240F22551064874
:1018700000F036F801210448FFF7B4FF05B000BDC1
:1018800000100140001401400050004070B50246B5
:10189000002400230025002040F66A16B14200D142
:1018A00000BFC1F3421501F01F03012606FA03F33E
:1018B000012D02D19689334006E0022D02D1168A0D
:1018C000334001E0968A33400C12012606FA04F4F4
:1018D0001688344013B10CB1012000E0002070BD27
:1018E000F0B50346002400260025002040F66A17C4
:1018F000B94200D100BF1846C1F3421401F01F06DF
:10190000012707FA06F5012C01D10C3004E0022C66
:1019100001D1103000E014301AB107682F4307607E
:1019200002E00768AF430760F0BD00002DE9F04713
:1019300086B005460E460024A24600BFA1460027F9
:10194000B08900B100BF2F462C8A4CF6FF700440CE
:10195000F08804432C82AC894EF6F3100440B08822
:1019600031890843718908430443AC81AC8A4FF63E
:10197000FF400440B0890443AC8201A8FFF7A0FBFC
:101980001F48874202D1DDF810A001E0DDF80CA06D
:10199000A88900F4004040B10AEBCA0000EB0A102D
:1019A00031684900B0FBF1F807E00AEBCA0000EB30
:1019B0000A1031688900B0FBF1F86420B8FBF0F040
:1019C00004012009642101FB1089A88900F400406A
:1019D00040B1322000EBC900B0FBF1F000F007008D
:1019E000044308E0322000EB09106421B0FBF1F061
:1019F00000F00F0004432C8106B0BDE8F087000022
:101A00000038014001468888C0F30800704700BFD5
:101A1000FEE702E008C8121F08C1002AFAD1704789
:101A20007047002001E001C1121F002AFBD170475E
:101A3000002107E042F6E06100BF0A1EA1F10103A8
:101A400099B2FAD1021EA0F1010398B2F2D1704707
:101A5000FEF71EFF00200C490880FFF7CFFEFFF7BE
:101A60005DFCFFF777F9FEF7B5FE0020FFF7C4FB3A
:101A700009E0FEF75BFF00210448FFF7DDFD0021D0
:101A80000248FFF7DBFDF4E700000020002C0140D6
:101A9000B01A00080000002024000000121A0008FC
:101AA000D41A00082400002004040000221A0008B0
:101AB0000000000000000000000000000000000026
:101AC00000000102030401020304060708090204DE
:041AD0000608000004
:0400000508000131BD
:00000001FF
